:020000040800F2
:10C0000000A00020413101084DFA00084FFA000855
:10C0100051FA000853FA000855FA00080000000021
:10C0200000000000000000000000000059FA0008B5
:10C0300057FA0008000000005BFA00085DFA0008EB
:10C040005FFA000861FA000863FA000865FA000860
:10C0500067FA000869FA00086BFA00086DFA000830
:10C060006FFA000871FA000873FA000875FA000800
:10C0700077FA000879FA00087BFA00087DFA0008D0
:10C080007FFA000881FA000883FA000885FA0008A0
:10C090008DFA000895FA000897FA000899FA000846
:10C0A0009BFA00089DFA00089FFA0008A1FA000810
:10C0B000A3FA0008A5FA0008ADFB0008AFFB0008D2
:10C0C000B1FB0008B3FB0008B5FB0008B7FB000894
:10C0D000B9FB0008BBFB0008BDFB0008BFFB000864
:10C0E000C1FB0008C3FB0008C5FB0008C7FB000834
:10C0F000C9FB0008CBFB0008CDFB0008CFFB000804
:10C10000D1FB0008D3FB0008D5FB0008D7FB0008D3
:10C11000D9FB0008DBFB0008DDFB0008DFFB0008A3
:10C12000E1FB0008E3FB0008E5FB0008E7FB000873
:10C13000F8B514200021304CF8F788F824200121AC
:10C14000F8F784F823680720B3F95C11F8F77EF854
:10C1500023680820B3F85E11F8F778F80920012168
:10C16000F8F774F80B200121F8F770F8234C002041
:10C170006421F8F76BF801206421F8F767F8236869
:10C180000A209988F8F762F823680C2099881C4ED9
:10C190000131F8F75BF805200121F8F757F806F0B0
:10C1A00077F920200146F8F751F84FF4FA6003F0D0
:10C1B00086F806200121F8F749F8124D1420124C98
:10C1C00003F07DF8002333602B6004F58047F8F717
:10C1D00031F8336800F0FF02D3182A6844F8040FDE
:10C1E000C0F307208018BC4233602860EFD1181AD2
:10C1F000064A000B1070F8BD64550020A09E002078
:10C200003C5600204056002048560020999E0020B1
:10C21000F0B5DFF87C3B0024DFF8785BA3B01C703E
:10C22000214606461420F8F711F8B5F994130A23AD
:10C23000013159430220F8F709F82046F7F7EAFFE1
:10C2400005202146F8F702F824200121F7F7FEFF28
:10C2500020200146F7F7FAFFB5F9E4130523013969
:10C260005943A5F850410320F7F7F0FFDFF8285BAA
:10C27000DFF8283B4FF4FA7018802B680720B3F9D9
:10C28000F810F7F7E3FF2B680820B3F8FA10F7F778
:10C29000DDFF09202146F7F7D9FF0B202146F7F7EC
:10C2A000D5FF40F28F170FE0284621460135F7F7FA
:10C2B000ADFFADB24FF6FF70F7F7AAFFBD42F3D165
:10C2C0001434A4B2DC2C01D00025EDE7002440F2A8
:10C2D0008F152046EF210134F7F798FFA4B24FF6EF
:10C2E000FF70F7F795FFAC42F3D100200146F7F756
:10C2F0008DFF002401344FF6FF70A4B2F7F788FFDA
:10C30000EF2CF7D12C201421F7F780FF14240134EF
:10C310004FF6FF70A4B2F7F77BFFC92CF7D1582076
:10C320001421F7F773FF142401344FF6FF70A4B201
:10C33000F7F76EFFC92CF7D184201421F7F766FFB9
:10C34000B524013C4FF6FF70A4B2F7F761FF002C53
:10C35000F7D1C8201421F7F759FFB534013C4FF647
:10C36000FF70A4B2F7F754FF002CF7D1F42014218A
:10C37000F7F74CFFB534013C4FF6FF70A4B2F7F766
:10C3800047FF002CF7D14FF490701421F7F73EFFD0
:10C39000143401344FF6FF70A4B2F7F739FFC92CFB
:10C3A000F7D14FF4A6701421F7F730FF14240134AD
:10C3B0004FF6FF70A4B2F7F72BFFC92CF7D14FF45B
:10C3C000C7700021F7F722FF2634013C4FF6FF70BB
:10C3D000A4B2F7F71DFF002CF7D1DFF8C439DFF85E
:10C3E000C45900930620B9210522234601F010F814
:10C3F000DFF8B4793120B92105222346009501F0F8
:10C4000007F85D20B92105222346009701F000F8C6
:10C41000DFF898C98920B92105222346CDF800C04C
:10C42000CDF808C000F0F4FFDFF88439CE20009387
:10C43000B92140F20512234600F0EAFFF920B921A4
:10C4400040F205122346009500F0E2FF40F225106D
:10C45000B92140F205122346009700F0D9FFDDF81C
:10C4600008C04FF4A970B92140F205122346CDF857
:10C4700000C0A62700F0CCFFDFF8385945E04FF0A8
:10C48000140C0CFB04FC2B68394663440093062013
:10C4900005220023CDF808C000F0BAFF2B68DDF8B4
:10C4A00008C039469C44CE2040F205120023CDF846
:10C4B00000C000F0ADFFDFF800C922A91CF804207D
:10C4C000DFF8F8C80B1903F80C2C01EB44021CF838
:10C4D0000410DFF8EC0803F8241CDFF8E81830F843
:10C4E0001400095D22F8500C03F8181CDFF8D81866
:10C4F000143F31F81410BFB222F8641CDFF8CC28C6
:10C50000125D013403F8302CA4B2DFF8C4080368CC
:10C510009B88A342B3D2002506952F462C46DFF810
:10C52000B428118889B241B90220F7F78FFE142090
:10C530000121F7F78BFE00F0D2BE21460A20F7F763
:10C5400085FE21460C20F7F781FE142002F0B7FE8D
:10C5500006200121F7F77AFE142002F0B0FEDFF882
:10C5600078C8DFF878280023CCF800301360DFF8B3
:10C57000703804962E4625461C460392F7F75AFE5D
:10C58000DFF85438039A196800F0FF0C6144D2F8C0
:10C5900000C044F8040FC0F307206044DFF844C82B
:10C5A000196064451060E8D1DFF814382C4633F880
:10C5B0001430090B5943DFF8003801F500711B579F
:10C5C000000B03EB9121DFF8003889B233F8143007
:10C5D00035465843DFF8EC3700F500701B57049ED2
:10C5E00003EB9020DFF8003880B21A7805910490B0
:10C5F000002A00F0E98400221A700C2D00F2E48475
:10C60000DFE815F00D00A6000B017C01BD011E0244
:10C6100092020C031E048E04B404C004D204DFF89A
:10C620009C27282492F900100020614301F5224143
:10C630008912F7F70BFEDFF89437012093F9001009
:10C64000614301F522418912F7F700FEDFF89C37BC
:10C6500008200093D82140F20532002300F0D8FED4
:10C66000DFF88C37E8200093D82140F20532002310
:10C6700000F0CEFEDFF87C374FF498700093D8219D
:10C6800040F20542002300F0C3FEDFF86C370820BB
:10C690000093062140F20532002300F0B9FEDFF8D6
:10C6A0005C27DFF85C3750201B780621009240F2AF
:10C6B000054200F0ADFE1EBBDFF84837B8200093FE
:10C6C000D8210522334600F0A3FEDFF80437DFF857
:10C6D000E8E6186832463346DFF8E446DFF8DC1651
:10C6E00008E04FF4806C0EF8032024F813C0CA54FD
:10C6F00001339BB2B0F804C09C45F2D200F060BC9C
:10C70000012E40F05D84DFF80037B8200093D82177
:10C7100040F20512002300F07BFEDFF8B436DFF8AC
:10C72000A4E6186800231A46DFF89C46DFF89C163A
:10C7300008E04FF4806C0EF8032024F813C0CA54AC
:10C7400001339BB2B0F804C09C45F2D200F038BC73
:10C75000DFF8B83608200093062140F205320023A6
:10C7600000F056FECEB9059813AF5FFA80FCACF12D
:10C77000280149B23846CDF808C002F020FF6FF01A
:10C7800013016143A631012389B22D2005220097B0
:10C7900000F03EFEDFF820361BE0012E21D1049987
:10C7A00013AF5FFA81FCACF1280149B23846CDF8ED
:10C7B00008C002F004FF6FF013016143A631334655
:10C7C00089B2F52040F20512009700F021FEDFF853
:10C7D000F4351A5DDDF808C02832CCEB020C03F802
:10C7E00004C0DFF8EC3501341B68E4B29B88A34237
:10C7F00001D202250024DFF8C4352827195700206C
:10C80000794301F522418912F7F720FDDFF8BC35A5
:10C810001957794301F522410CE10137FFB2072F87
:10C8200088BF00270EBB059A13AB5FFA82FCACF100
:10C830002801184649B2CDF808C0039302F0BFFEA4
:10C840006FF013016143039BA63100932D20052255
:10C85000334689B200F0DCFD059BDDF808C0282BCB
:10C8600018BFDFF8543523D129E0012E26D10498D2
:10C8700013AB5FFA80FCACF12801184649B2CDF841
:10C8800008C0039302F09BFE6FF013016143039B0A
:10C89000A63189B20093F520002340F2051200F082
:10C8A000B7FD0499DDF808C0282908D0DFF8143551
:10C8B0001A5D2832CCEB020C03F804C017B901341E
:10C8C000E4B20027DFF808351B689B88A34201D239
:10C8D00003250024DFF8E4340020195728235943A6
:10C8E00001F5224189120393F7F7B0FCDFF8DC244D
:10C8F000039B1157594301F5224110E1DFF8BC3485
:10C9000000201957A023594301F5203101F500718A
:10C9100089120393F7F79AFCDFF8B024039B1157B1
:10C920000120594301F5203101F500718912F7F713
:10C930008DFC059BDDF810C01AB2D6F1010338BF9B
:10C9400000238C2AD4BF002303F00103002B18BF5F
:10C9500004250FFA8CF2012E14BF002301230137A6
:10C960008C2AD4BF002303F00103FFB20BB10135C1
:10C97000EDB2142F40F228830135EDB224E3BEB9A5
:10C98000059813AF00F1600149B2384602F017FE76
:10C990006FF013016143A63189B2052201235920AA
:10C9A000009700F035FD0599DFF810240BB219E06F
:10C9B000012E23D1049A13AF02F16001384649B227
:10C9C00002F0FDFD6FF013016143A63140F2051244
:10C9D000334689B240F22110009700F019FD049F00
:10C9E000FA4A3BB29B02A3F51E336FF09F01A3F5F9
:10C9F000F66393FBF1F3115D5B181355F44B0134AF
:10CA00001B68E4B29B88A34201D205250024EB4BAE
:10CA1000A02719570020794301F5203101F5007155
:10CA20008912F7F713FCE94B1957794301F52031C7
:10CA300001F5007189120120F7F708FC0027C3E215
:10CA40000137FFB2072F88BF0027E6B9DDF814C011
:10CA500013AB0CF16001184649B2039302F0AFFD2D
:10CA60006FF013016143039BA63159200522009307
:10CA700089B2334600F0CCFC059803B2A02B18BF56
:10CA8000CE4A20D12CE0012E29D1049A13AB02F119
:10CA90006001184649B2039302F091FD6FF0130153
:10CAA0006143039BA631009389B2002340F2211019
:10CAB00040F2051200F0ACFCDDF810C00FFA8CF368
:10CAC000A02B0DD0C14A9B02A3F51E336FF09F012E
:10CAD000A3F5F66393FBF1F3115D5B18135517B9DA
:10CAE0000134E4B20027BA4B1B689B88A34201D2F1
:10CAF00006250024B14B00201957A023594301F506
:10CB0000203101F5007189120393F7F79FFBAF4ABB
:10CB1000039B1157594301F5203101F5007189122A
:10CB20000120F7F793FB4FE2013706980599FFB212
:10CB3000142F88BF072509B20128A04B079139D8C7
:10CB400093F900102824614301F522418912002045
:10CB5000F7F77CFB9D4A012092F90010614301F533
:10CB600022418912F7F772FBDDF81CC0D6F10103F0
:10CB700038BF0023BCF1310FCCBF002303F0010309
:10CB800023B106980125431CDBB206930499012EBC
:10CB900014BF002301230CB2312CCCBF002403F0BE
:10CBA0000104002C00F01082069A0125531CDBB210
:10CBB000069305E293F900101924614301F5CC4175
:10CBC00089120020F7F742FB804B012093F90010F7
:10CBD000614301F5CC418912F7F738FBDDF81CC041
:10CBE000D6F1010338BF0023BCF1360FCCBF0023C0
:10CBF00003F001030BB10135EDB20498012E14BF0F
:10CC00000023012304B2362CCCBF002403F001041E
:10CC1000002C00F0D9810135EDB2D1E17C4B202010
:10CC20000093D82140F20532002300F0F1FB744953
:10CC3000784A0B780C2101FB042258200092CC3159
:10CC400040F2054200F0E4FB734BA0200093D82192
:10CC500040F20532002300F0DBFB704B082000930C
:10CC6000062140F20532002300F0D2FB644A9020F6
:10CC700013786B4A0621009240F2054200F0C8FB8F
:10CC8000DFF87CC1674A9CF80030B0200092062192
:10CC900040F2054200F0BCFB634BD8200093062114
:10CCA00040F20532002300F0B3FB55485F4A037899
:10CCB000062100924FF4A87040F2054200F0A8FB54
:10CCC0004F495B4A0B784FF4B8700092062140F24E
:10CCD000054200F09DFB46BB059A13A811B223291B
:10CCE000DCBF0096314608DD324B14221B6819392F
:10CCF00002FB04331B69009659434E4A032302F09A
:10CD0000E7FA6FF0130161433D4B13AAA6311B787C
:10CD10008620009289B2052200F07AFB464B4FF440
:10CD2000A4700093D82105223CE1012E40F04C81F3
:10CD3000049B13A819B223290CDD1E4B14221B6877
:10CD4000193902FB04331B693A4A59430023009303
:10CD5000033303E00021374A0091032302F0B8FABD
:10CD60006FF013016143264B13AAA6311B7889B2D9
:10CD700000924FF4A77040F2051200F049FB2F4BD0
:10CD80004FF4A4700093D82140F205120AE100BFCD
:10CD90002A4D002060310020645500201A4D0020EB
:10CDA000603F0108653F01086A3F01086F3F0108C5
:10CDB000773F01089C9E0020F85500204C5500202C
:10CDC000A83E002004560020BC3E002058550020FC
:10CDD000A09E0020204D00203C5600204056002000
:10CDE0004856002048960020244D00207C3F010832
:10CDF000933F01089D3F0108A73F010896410108A4
:10CE0000234D0020D63F0108DD3F0108E43F010823
:10CE100013400108003000201B4001083140010888
:10CE20004B4001084D4001084F4001086640010891
:10CE300068400108703500206A400108714001080F
:10CE4000DFF8A03408200093062140F205320023C9
:10CE500000F0DEFADFF890C4DFF890249CF8003090
:10CE600060200092062140F20542CDF808C000F093
:10CE7000CFFADDF808C0DFF878249CF80030802075
:10CE80000092062140F2054200F0C2FADFF8643455
:10CE900088200093062140F20532002300F0B8FA02
:10CEA000DFF8543408200093D82140F205320023E3
:10CEB00000F0AEFADFF8443470200093D82140F23D
:10CEC0000542002300F0A4FADFF83424DDF808C09E
:10CED00048209CF80030D821009240F2054200F032
:10CEE00097FA5EB9DFF81C344FF4A4700093D82190
:10CEF0000522334600F08CFA069665E0012E61D1DA
:10CF0000DFF804344FF4A4700093D82140F20512E6
:10CF1000002300F07DFA4FF0000CCDF818C053E06C
:10CF2000F74AF14B48201B78D821009240F2054285
:10CF300000F06EFAF54B70200093D82140F20542C4
:10CF4000002300F065FA56B9F14B4FF4947000934A
:10CF5000D82140F20512334600F05AFA34E0012E8F
:10CF600032D1EC4B4FF494700093DBE6E44ADE4B95
:10CF700048201B78D821009240F2054200F048FA80
:10CF8000E54B0AE0DE4AD84B48201B78D8210092B6
:10CF900040F2054200F03CFAE04B00937020D821AB
:10CFA00040F205420023D7E7D54ACF4B48201B78F3
:10CFB000D821009240F2054200F02AFAD84BECE763
:10CFC000002401E000200690D64B1B78002B3FF494
:10CFD000A6AAD54BD54A1B68072D14BF4FF0000CED
:10CFE0004FF0010C9B884FF41671A34234BF00230D
:10CFF0000CF001031180FBB156B96FF013016143CE
:10D0000013ABA631009389B28620052233460DE08A
:10D01000012E11D16FF01301614313ABA6310093C0
:10D0200089B24FF4A77040F205120023CDF808C072
:10D0300000F0EEF9DDF808C0BA4B1B78023B072B75
:10D0400000F24881DFE813F0080046014601F200D3
:10D050001B014601DD00CC00002D08BF0125A5F114
:10D060000803DBB2012B50D8092D08BFC6F1010619
:10D070004FF0000C08BFF6B20494A62564463CE0CD
:10D08000B6B9AB492D20009105222946334600F060
:10D09000BFF9A74A5920009229460522334600F0DD
:10D0A000B7F9A44B862000932946052233461EE09B
:10D0B000012E1ED1DFF878C2F520294640F2051274
:10D0C0000023CDF800C000F0A3F99948294600904C
:10D0D00040F2051240F22110002300F099F9954921
:10D0E0004FF4A770009140F205122946002300F08A
:10D0F0008FF90134143DA4B2ADB28B4A13689B88FA
:10D10000A342BDD2049C0025E4E0092D40F2E28058
:10D110000A2D2ED1844B884D1E68884C0023DFF8E1
:10D1200020E2DFF820C288481CE022AFFA1812F88B
:10D130000C1CE95407EB430131F8507C31F8641CB6
:10D1400024F8137012F8247C20F813100EF80370E2
:10D1500012F8301C12F8187C7C4A0CF80370D15479
:10D1600001339BB2B2889A42DFD201F075FF784B4F
:10D1700027E00B2D03D101F06FFF764B21E00C2D42
:10D1800027D1694B6C4C1D68DFF8B0E10023DFF854
:10D19000B0C16C486C490EE04FF480662EF8136005
:10D1A00021F81360694E0022E2540CF80320C254A7
:10D1B000F25401339BB2AA889A42EDD201F04CFF9F
:10D1C000654B00930820D82140F20542002300F06F
:10D1D0001FF94FF47A7002F072F804F087FF7EE0D6
:10D1E000002C0CBF00230CF0010313B1013CE4B28E
:10D1F0006FE0082D01D9013DEDB2082D08BF0C25C7
:10D2000068E0072D03D90135EDB20C2D04D8072DA8
:10D2100003D10134E4B200E00825434B1B689B882E
:10D22000A34257D20135EDB2002453E0BCF1000F08
:10D2300050D0DDF814C0D6F1010338BF00230FFA37
:10D240008CF2232AD4BF002303F001032BB13B4B04
:10D2500033F81420023A23F814200498012E14BF46
:10D260000023012302B2232AD4BF002303F00103C9
:10D27000002B2ED0344B33F81420023A24E0BCF1BA
:10D28000000F27D00599D6F1010338BF00230AB259
:10D29000232AD4BF002303F001032BB1274B33F81B
:10D2A0001420023223F81420049B1AB2012E14BF5A
:10D2B00000230123232AD4BF002303F0010343B139
:10D2C000214B33F81420023223F8142007250126BD
:10D2D00000E00725134B00221A70FFF720B923B096
:10D2E000F0BD00BF78400108234D002066400108D2
:10D2F000684001088A400108AB400108B9400108B4
:10D3000096410108D73F0108DE3F0108D5400108DA
:10D31000ED400108F74001080141010823410108DF
:10D32000454101082A4D0020A09E0020204D0020EC
:10D330009241010890410108F8550020A83E0020C4
:10D340004C55002004560020BC3E002058550020BB
:10D350006741010898410108C9410108A0F1200373
:10D36000DBB2012B06D92238034B01EBC00033F8A6
:10D37000100000E000207047FC410108024B181823
:10D3800090F8D005704700BFFC410108F0B58C460D
:10D390001D4600F10A010CF10A0385B014469BB248
:10D3A000624689B2F6F73AFF0B235D43164B013D07
:10D3B000220A03EB4505154F03920195002604F060
:10D3C0000F04019A002532F8023F01920293029A5B
:10D3D00052FA05F313F0010F16BF039B37F8140040
:10D3E00037F813000135F6F713FF0B2DEFD1013697
:10D3F000B6B20B2EE5D1002040F28F110246EF238A
:10D40000F6F70CFF05B0F0BDF84801086C300020BD
:10D41000F0B585B08C46019301F10A0314469BB226
:10D42000624640F28F11F6F7F9FE2F4F04F00F021B
:10D43000260A0B250092019B1BB9009A37F81200AF
:10D4400001E037F81600013DADB2F6F7E1FE002D20
:10D45000F1D10A9B04F00F040093234D029435E0B0
:10D460000024009A12F8017CA7F12003DBB2012B03
:10D4700005D9E1B23846FFF771FF80B200E0002025
:10D48000212F14BF00270127042C14BF002707F009
:10D490000107DFB900B20390039A12FA07F313F4FD
:10D4A000806F02D0019B13B905E0019B1BB9029A62
:10D4B00035F8120001E035F816000137F6F7A8FE3E
:10D4C0000B2FE9D10134A4B2082CCAD1009B13F868
:10D4D000010B00930028C3D140F28F110246EF23C5
:10D4E000F6F79CFE05B0F0BD6C300020F7B51F4686
:10D4F0000191BDF820409DF824500A9935E0212B78
:10D5000014BF0926052690422DD306EB020C604578
:10D5100029DA0138821A92B212F4004F05D1D1B241
:10D520001846FFF71BFF80B200E00020019B210A94
:10D5300003EB47070F4B002200B204F00F0400FA80
:10D5400002FC1CF4806F01D00DB903E015B933F86B
:10D5500014C001E033F811C00132A7F800C002374F
:10D560000B2AECD105E0B21892B211F8013B002B66
:10D57000C5D1FEBD6C300020F0B5DFF848350C4653
:10D58000B3F800C1B3F8B010BCF1000318BF012319
:10D5900091B00546BCF10A0F0CBF002303F0010354
:10D5A000A5F10B02A0F10C000A93ACF102039BB2AF
:10D5B0008000960036B20B9300270CAB00B20991A5
:10D5C000069308960EAB394607901646CDF814C060
:10D5D00006984FF0000C032980F800C04FEA510272
:10D5E00009D8099860B90A98C8B1DDF814C0BCF12F
:10D5F0000B0F05D113E0062911D10B9801280ED885
:10D60000DFF8C474DDF81CC0BA1802EB0C00007D12
:10D610000527187008981218127D5A700AE0DFF872
:10D62000A8C46244DDF81CC012F80C0018700898F9
:10D63000125C5A701A78C72A01D9C72202E0012A5F
:10D6400001D801221A705A78C72A01D9C72202E0EC
:10D65000012A01D801225A7018785A78824217D1CB
:10D66000012A14BF00200120C72A08BF40F0010092
:10D6700028B1DDF818C001228CF8002008E0012A4A
:10D6800001D9013A1A705A78C62A01D801325A7063
:10D6900018785A78904284BF58701A7006980231F0
:10D6A000C9B2023002330829069091D16FF001030C
:10D6B0007B43DFF81004DFF8147407930DF1380C86
:10D6C00000230CAAD25C0ABBB0F91020F2B10CEB1B
:10D6D000030149781CF803200691089012E0FC48E9
:10D6E0000178012905D0FB480188079841188D422F
:10D6F00006DAF95A34F8120040EA010124F812104F
:10D700000132D2B206998A42E9D9089802335030E0
:10D71000082BD6D1F04B32461B78002B37D0FF2E8A
:10D7200035DCEE4B33F916100123C729A8BFC721FA
:10D7300005E04FF4FC6724F813700133DBB28B4231
:10D74000F7DBE74B1B68191F8A4202D0191D8A427A
:10D7500011D1E44ADF491378013BDBB206E04FF018
:10D760001F0C24F813C001334D80DBB2B2F9000066
:10D770009842F4DA0BE0D91E8A4202D0D91C8A42C0
:10D7800009D1D84B1F20B3F9003024F81300002131
:10D79000CC4ACE4B14E0591F8A4202D005339A423C
:10D7A000F5D1D04A1378023B03E01F2124F813106F
:10D7B0000133B2F90010DBB201319942F5DAE6E744
:10D7C000B2F9400288420BD103EB8100B0F920008E
:10D7D00033F811C034F8106046EA0C0C24F810C07D
:10D7E000B2F81802C0F1A10000B20B2836DD854264
:10D7F00017D192F81AC21CF0040F12D1A4460127C7
:10D800000E460690BCF8021098890337FFB240EA32
:10D810000101CA2FACF802100CF1060CF2D10698E7
:10D82000314600F1FF3C654503D000F1010C654530
:10D8300006D19F89A4F89071B3F80CC0A4F800C079
:10D8400085420BD19889A4F890019F89A4F88E7124
:10D85000B3F80CC0A4F802C098892080B2F8300355
:10D860000B3000B2854217D192F832C31CF0040F7E
:10D8700012D1A44601270E460690BCF80210188962
:10D880000337FFB240EA0101CA2FACF802100CF1D5
:10D89000060CF2D10698314600F1FF3C654503D0F5
:10D8A00000F1010C65450ED1B4F89061B3F808C0E1
:10D8B00046EA0C0CA4F890C12688B3F808C046EAE2
:10D8C0000C0CA4F800C0854219D11889B4F890C195
:10D8D0004CEA0000A4F890011889B4F88EC14CEA13
:10D8E0000000A4F88E01B4F802C018894CEA0000C8
:10D8F0006080B4F800C018894CEA00002080B2F8BB
:10D9000044030B3000B2854217D192F846C31CF095
:10D91000040F12D1A44601270E460690BCF802104F
:10D9200018890337FFB240EA0101CA2FACF8021090
:10D930000CF1060CF2D10698314600F1FF3C65452A
:10D9400003D000F1010C654506D11F89A4F8907140
:10D95000B3F808C0A4F800C0854209D11889A4F81A
:10D9600090011F89A4F88E71B3F808C0A4F802C012
:10D97000013104297FF424AF0C2D04D0554B1B88B2
:10D98000013B9D4213D14F4B504AB3F9901210897D
:10D9900034F811C04CEA000024F81100B3F9A432A5
:10D9A000128934F8131041EA020224F81320454B7F
:10D9B00093F8922212F0040F09D1B3F99032434A3E
:10D9C00034F81310128941EA020224F813203D4B67
:10D9D00093F8A62212F0040F09D1B3F9A4323B4AFE
:10D9E00034F81310128941EA020224F813203A4B4A
:10D9F0001B78002B63D04FF6FF7300930123019334
:10DA0000394BF5220293284604232146FFF76EFD89
:10DA1000344B1B881AB2052A26DD2E4A918822290A
:10DA200001D8232090801AB2A42A3049294A0CDD5B
:10DA300092884FF6FF73143A0093012301930291E9
:10DA400092B228462146B1330CE092884FF6FF701F
:10DA5000143A0E33009001200190029192B29BB2D1
:10DA600028462146FFF742FD214B4FF6FF7601275E
:10DA70000293284621460F22BD2300960197FFF707
:10DA800035FD1C4B2846029321463222BD230096C9
:10DA90000197FFF72BFD184B284602932146C82219
:10DAA000BD2300960197FFF721FD144B28460293F2
:10DAB0002146EB22BD2300960197FFF717FD11B019
:10DAC000F0BD00BF603100202C4F00206C300020E2
:10DAD000304D0020D03E0020394D002050960020CF
:10DAE000889E0020849E0020609E00208C9E002046
:10DAF000E84F0108789E0020ED4F01086C9E002041
:10DB000008B50E4B1B88834201D00B2801D10C486D
:10DB100011E00B381E2390FBF3F203FB12030BB949
:10DB2000084808E0062390FBF3F203FB120008B953
:10DB3000054800E00548F6F77BFB08BDD03E002015
:10DB400050490108E44A0108784C01080C4E0108CC
:10DB5000B0F5827F08B506D0164B421C1B889A424E
:10DB600001D00B2801D1144821E0A0F10A031922A9
:10DB700093FBF2FC02FB1C32B0F5827F2CBF00202D
:10DB80000120002A14BF002200F001020AB10B4854
:10DB90000DE0052293FBF2FC02FB1C33002B14BFAB
:10DBA000002000F0010008B1054800E00548F6F744
:10DBB0003FFB08BDD03E002050490108E44A01085F
:10DBC000784C01080C4E010808B50248F6F730FB06
:10DBD00008BD00BF0C4E0108F0B5032885B006460D
:10DBE0000D4606D84E4B502202FB0033B3F94C30A1
:10DBF00004E04C4B03EB8103B3F92030C52B00F359
:10DC00008D80474B502707FB06370024062C34D85D
:10DC1000032E454B09D8072202FB06331B1993F844
:10DC2000A43DB7F84C10039307E01B1993F8C03DCF
:10DC300003933C4B03EB8503198C093189B22046D1
:10DC4000F6F7E4FA0823039A12F0010F15BF354ADC
:10DC5000344A508932F815000093F6F7D9FA009B40
:10DC6000013B9BB21BB1039A52080392EBE72D4B89
:10DC700033F81500F6F7CCFA4BE0032E1FD8B7F8AF
:10DC80004C1020460331611889B2F6F7BFFAB7F895
:10DC90004C30244A0333E3189BB209E032F81500F4
:10DCA00002920093F6F7B4FA009B029A01339BB2FA
:10DCB000B7F94C101831091B8B42EFDB29E0DFF874
:10DCC00064C020460CEB8503198C00930331611866
:10DCD00089B2CDF804C0F6F799FA009BDDF804C0CC
:10DCE0001A8C0332A21892B20DE03CF81500029291
:10DCF0000093CDF804C0F6F78BFA029ADDF804C061
:10DD00000132009B92B2B3F920101831091B8A42EC
:10DD1000EBDB0134A4B20B2C7FF478AF05B0F0BD7F
:10DD2000603100206C300020FC410108F7B5F6F7A7
:10DD30007DFAA14D0024A0B20C21F6F767FA0C265B
:10DD400001366889F6B2F6F763FAD72EF8D10134B6
:10DD5000A4B20B2CEFD1994BB3F910301BB10020BA
:10DD60000146FFF739FF954BB3F960301BB1012035
:10DD70000146FFF731FF914BB3F9B0301BB10220E0
:10DD80000146FFF729FF8D4BB3F900311BB103208A
:10DD90000146FFF721FF894BB3F9401211B9072063
:10DDA000FFF71AFF854BB3F94012012902D1072072
:10DDB000FFF712FF814BB3F94012022902D107206D
:10DDC000FFF70AFF7D4BB3F94012032902D1072068
:10DDD000FFF702FF7A4B0C211888774E013080B292
:10DDE000F6F714FA0C2501357089EDB2F6F710FA42
:10DDF000D72DF8D10025724B6F4E12E0A7B20C213F
:10DE000038460093F6F702FA7089F6F701FA3846B9
:10DE1000D621F6F7FBF97089F6F7FAF90134009B81
:10DE2000A4B21A8805F10B01013201359142E5DDFA
:10DE3000624B0A20B3F890125F4D0B3189B2F6F7AE
:10DE4000E5F9002401342889A4B2F6F7E1F9052C9C
:10DE5000F8D15A4B0A20B3F8A412574D0B3189B2AE
:10DE6000F6F7D4F9002401342889A4B2F6F7D0F9E2
:10DE7000052CF8D1524B504D1888504B0130B3F857
:10DE8000901280B20B3189B2F6F7C0F90024013448
:10DE90002889A4B2F6F7BCF9052CF8D1484B464DB9
:10DEA0001888464B0130B3F8A41280B20B3189B206
:10DEB000F6F7ACF9002401342889A4B2F6F7A8F9E2
:10DEC000052CF8D13D4BB3F81842C4F1A104A4B21B
:10DED00022B20B2A1FDD023CA4B2002523B202327B
:10DEE000354E15E0A7B20C21384601920093F6F7A3
:10DEF0008DF9B089F6F78CF93846D621F6F786F910
:10DF0000B089F6F785F90134009B019AA4B2013576
:10DF1000E9189142E6DD294B0024B3F83033264E50
:10DF200003F10B0292B2951E093312B2ADB21BB2CD
:10DF3000023215E0AFB20C21384601920093F6F799
:10DF400065F93089F6F764F93846D621F6F75EF9B7
:10DF50003089F6F75DF90135009B019AADB20134C5
:10DF6000E1189142E6DD154B0024B3F84433124E1C
:10DF700003F10B0292B2951E093312B2ADB21BB27D
:10DF8000023215E0AFB20C21384601920093F6F749
:10DF90003DF93089F6F73CF93846D621F6F736F9DF
:10DFA0003089F6F735F90135009B019AADB201349D
:10DFB000E1189142E6DDFEBD6C30002060310020AA
:10DFC000D03E0020F7B559200021F6F71FF90C24A8
:10DFD000013C40F21F50A4B2F6F71AF9002CF7D119
:10DFE00021465A20F6F712F90C34013C40F21F503A
:10DFF000A4B2F6F70DF9002CF7D121464FF49A7030
:10E00000F6F704F90C34013C40F21F50A4B2F6F7C5
:10E01000FFF8002CF7D1214640F23510F6F7F6F85C
:10E020000C34013C40F21F50A4B2F6F7F1F8002C7A
:10E03000F7D15B264A4F21E028460021F6F7E6F8A3
:10E040003A5B00230192019A009352FA03F010F018
:10E05000010018BF40F21F50F6F7DAF8009B0133B9
:10E060000C2BF0D102340135102CADB2E4D10836BE
:10E07000B6B233B240F23312934203D0B6B2354651
:10E080000024D9E7374BC820B3F918320021584390
:10E0900040F6886390FBF3F05B3080B2F6F7B6F899
:10E0A0000924013C4FF6FF70A4B2F6F7B1F8002C3A
:10E0B000F7D104F0DDFA2B4BC822B3F91832214610
:10E0C000534302F55C6293FBF2F34FF64C625C3310
:10E0D00092FBF0F0181880B2F6F798F80934013C7A
:10E0E0004FF6FF70A4B2F6F793F8002CF7D125464F
:10E0F0001C4E26E0B6F91802C823584340F6886241
:10E1000090FBF2F0AFB25B303818002180B2F6F726
:10E110007DF84FF6FF70F6F77BF8B6F91802C823C2
:10E12000584340F6886290FBF2F05B303F18B8B27B
:10E130000921F6F76BF84FF6FF70F6F769F801352D
:10E14000ADB204F095FA4FF64C62234692FBF0F024
:10E1500001349842CEDA034B002283F82E22FEBD12
:10E16000C44F01086031002070B54FF49C740FE07B
:10E17000A9B230460135F6F749F8ADB20020F6F7FE
:10E1800047F8D82DF4D10134A4B2B4F5C87F02D039
:10E190000B25A6B2ECE7024B002283F82E2270BDBD
:10E1A00060310020F0B52D4B89B005932C4A002337
:10E1B0002C4C9C46059E1FFA8CF537780695957970
:10E1C00076787F19D5796C3F7519643DADB2BFB2D1
:10E1D0006E1E0197B6B2003F18BF01270397C62EE7
:10E1E0008CBF002707F0010757B1019EF92E07D811
:10E1F000864201BFE68831F815703E4321F815606C
:10E20000D579069EB5420CD105280AD995792E1DDF
:10E21000864206DB043D8542DFBFA688CD5A3543E2
:10E22000CD52957985420DD1069F052F0AD9D57912
:10E230002E1D664506DB043D6545DFBFA688CD5A29
:10E240003543CD52059D0CF1010C04350233BCF56C
:10E25000807F0595AED109B0F0BD00BF2C4F0020E6
:10E26000D03E00206C300020C0F3C402C0F3C44391
:10E2700043EAC223C0F3852043EA401080B27047CE
:10E28000C0F3074C10B5C1F30744CCEB040454436E
:10E29000C0F307230CEB242CC1F30724E41A5443E6
:10E2A000C0B2C9B2091A4A4303EB2423DBB200EB24
:10E2B00022201B025FFA8CFC43EA0C4CC0B24CEAF1
:10E2C000000010BDF7B5114E114F00243225FF2379
:10E2D000B4FBF5F2D1B205FB1242D2B25A4307EBBE
:10E2E0008100014692FBF5F2D2B2D1F8DC1DD0F8E4
:10E2F000D80D0193FFF7C4FFFFF7B6FF0134E4B276
:10E30000C82C26F8020F019BE2D1FEBDD63E0020AC
:10E31000FC41010810B50C46FFF7D4FF0A4B0B4A2D
:10E32000214603F5C77033F902CFBCF1C70FA8BF70
:10E330004FF0C70C02EB4C0CBCF808C0834221F82C
:10E3400002CFF0D110BD00BF50960020D03E00207B
:10E35000274B70B54FF4F07200F0010602FB063552
:10E36000044686F0010602FB0636F5F75FFF2046FD
:10E370000D21F5F74BFF1F4BB3F9F031062B31D8C8
:10E38000DFE803F00404040413132200204631469E
:10E39000FFF7B6FB0B2C25D9174B1B88A34221D9BD
:10E3A00020462946FFF7E8F81CE020463146FFF7F3
:10E3B000CFFB0B2C16D9104B1B88A34212D9204639
:10E3C0002946FFF7EFFE0DE00C483146F5F730FF28
:10E3D0000B2C07D9084B1B88A34203D9204629469A
:10E3E000FFF798FF2846C921F5F71CFF70BD00BF55
:10E3F0006840002060310020D03E00200C4E010813
:10E4000038B5294C294804F5CC71F5F711FFF5F71B
:10E410000DFF274AB2F8F031191F89B201290CD833
:10E42000B2F91030002B38D12248692140F2246221
:10E43000195404339342FBD12FE0062B07D109E096
:10E440001C4B1D4964225A7004338B42FBD10B24B0
:10E45000154D17E0B4F8582523889A4202D90022B6
:10E46000A4F85825104CB4F85805FFF771FFB4F81C
:10E4700058350133A4F8583507E02046FFF768FF08
:10E480000134A4B22B88A342F7D2074B5A889A8052
:10E49000F5F7C6FEF5F7CAFE38BD054BB3F9603097
:10E4A000002BCDD0D3E700BFD03E00200C4E01089A
:10E4B000603100202C4F00205055002013B503463A
:10E4C0000C4601A8194601F05EF89DF804300020C2
:10E4D00023719DF8053063719DF80630A3711CBD52
:10E4E0004FF6FF73984251D01F3B00EA03034FF6EB
:10E4F000E07293424CD0430513F5001F4AD04FF60B
:10E500001F03A2F5F86200EA0303013A934243D0E5
:10E5100000F4FC63B3F5FC6F40D04BF6E05300EA27
:10E5200003034BF6E05293423AD040F2F75300EA2D
:10E53000030340F2F752934234D04BF6170300EA3C
:10E5400003034BF6170293422ED000F4BC63B3F5DD
:10E55000BC6F2BD047F6EF3300EA030347F6EF32E8
:10E56000934225D040F21F5300EA030340F21F52AA
:10E5700093421FD000F47843B3F5784F1CD000F0DD
:10E580001F001F2814BF0D200C2016E0002014E0EF
:10E59000012012E0032010E005200EE007200CE02F
:10E5A00002200AE0042008E0062006E0082004E03B
:10E5B000092002E00A2000E00B207047F0B587B088
:10E5C00005460C221449684605F03AFC03AE28467D
:10E5D0006946FFF773FF11486946324605ABF5F708
:10E5E00055FE6C46054698B90D4C04F5C8670B48B6
:10E5F0003146F5F74DFE50B9204608494FF4C87230
:10E6000004F5C87405F01CFCBC42F0D100E00825FC
:10E61000284607B0F0BD00BFF24F01082C4400208F
:10E620002C460020F0B589B001AC0C2205462749E4
:10E63000204605F005FC05AE0023214628468DF84E
:10E640001030FFF73BFF21462148324607ABF5F774
:10E650001BFE0446002834D11D4821464FF40072A9
:10E6600005F02CFC1B4D1C4F1BE012F8041B03F89B
:10E67000011FBB42F9D1164AB5F84C30314682F839
:10E680008F311046F5F706FE0146E0B904F00303AA
:10E69000FE2040F20A520134FEF778FE5035042C79
:10E6A00003D00E4BE2180E4BDFE709484FF4006130
:10E6B000324607ABF5F7F0FD002814BF0920002013
:10E6C00002E00A2000E0092009B0F0BDF24F010885
:10E6D0002C44002060310020BC4500202C4F00203D
:10E6E0002D440020F0B589B002AC0C220546464905
:10E6F000204605F0A5FB21462846FFF7DFFE214610
:10E70000424805AA07ABF5F7BFFD0446002875D1BE
:10E7100036223E483E4905F093FB3E4A3B4B02F110
:10E72000200032F8021F83F8394001F4784C4FEA98
:10E730002C2C83F836C001F4FC6C4FEAEC0CC900B9
:10E7400083F837C083F8381004338242E9D10024BB
:10E75000762627463EE021462846F5F757FDF5F791
:10E7600083FD0346681C214680B20193F5F74EFDF8
:10E77000F5F77AFD019B024618460192FFF7B0FEBD
:10E78000019A034610460193FFF7AAFE019B1F4A18
:10E7900000EB031393550136B6B240F2FF139E42CD
:10E7A0000FD9104605A9F5F775FD064640BBC7F31E
:10E7B0004103FE200137314640F20A52BFB2FEF754
:10E7C000E5FD0235ADB2B5F5C87FC4D10134A4B2C0
:10E7D000F02C01D00025BEE726B10C4805A9F5F7BD
:10E7E00059FD68B909484FF43C4105AA07ABF5F754
:10E7F00053FD002814BF0920002002E00A2000E099
:10E80000092009B0F0BD00BFFE4F01082C440020D4
:10E810009C300020D2300020F0B587B004460C2296
:10E820003B49684605F00CFB2046694603ACFFF700
:10E8300045FE38486946224605AB6D46F5F724FD8E
:10E84000002860D1344F0546324C39464FF40072EF
:10E85000204605F0F5FA204603A9F5F71BFD06460C
:10E86000002852D1C5F341030135FE20314640F264
:10E870000A52EDB2FEF78AFD202D07F50077E3D1AD
:10E8800031464FF40072204605F018FB234A04F18C
:10E8900020012346108A1880908C5880108F988011
:10E8A000B2F84C005032D88008338B42F2D11B4B67
:10E8B0001B49B3F8A0212284B3F8B4016084B3F9F2
:10E8C00038201448895CA184164931F81210164A80
:10E8D000E184B3F988301549D25C228531F81310F0
:10E8E000134A03AC51802146F5F7D4FC68B90948B6
:10E8F0004FF48441224605ABF5F7CEFC002814BF47
:10E900000920002002E00A2000E0092007B0F0BD45
:10E910000A5001082C4400204C5600206031002091
:10E92000F8550020A83E002004560020BC3E0020E0
:10E9300054440020F0B589B05A490C22054601A87C
:10E9400005F07EFA00238DF81030574B4AF655201B
:10E95000564CA3F840085649564B2246178A23F8CE
:10E96000087C908C23F8060C178F23F8047CB2F8EF
:10E970004C00503223F8020C08338B42EED14B4A44
:10E98000494BB2F8A011B2F8B421A3F86218A3F869
:10E9900064280021484B494EDFF824E1DFF824C108
:10E9A00049480A46B75C23F8087C3EF8017023F812
:10E9B000067C1CF80270013223F8047C475A0231AD
:10E9C00023F8027C0833082AECD101AE28463146F0
:10E9D00005ADFFF773FD344831462A4607ABF5F71E
:10E9E00055FC074600285AD1384E2F4D05A9284618
:10E9F000F5F74EFC002851D1304629464FF40072FD
:10EA000005F01EFA324806F500768642EDD128461A
:10EA100005A9F5F73DFC002840D105F120002B4663
:10EA200002211A8822825A88A2849A882287DA8848
:10EA30000833A4F84C200222A17484F8262084F81C
:10EA40003A1084F84E1050348342EAD1288C174B88
:10EA5000A3F8A001698C83F8A221A3F8B41183F86C
:10EA6000B621A88CB3F9382014498854E88C14498D
:10EA700021F81200288DB3F98820124988541548CE
:10EA80001149408821F8120093F85221012142F0E7
:10EA90000202A3F8501183F8522100E008273846FB
:10EAA00009B0F0BD0A5001082C440020603100205C
:10EAB000964C0020764C00209A4C0020F8550020FF
:10EAC000A83E002004560020BC3E00204C560020EA
:10EAD0004C96002054440020294B70B5B3F84028D0
:10EAE0004AF655239A4249D1264A274BDFF89CC063
:10EAF000022032F8081C198232F8066C9E8432F823
:10EB0000041C198732F8026C02210832A3F84C6009
:10EB1000987483F8261083F83A0083F84E00503337
:10EB20006245E6D1164A184BB2F86208B2F864287A
:10EB3000A3F8A001A3F8B42183F8A21183F8B611B9
:10EB4000134D0021134B144CDFF850C014480A46F3
:10EB500033F8086C565533F8066C665233F8046C7B
:10EB600002F80C6033F8026C01324652083302316D
:10EB7000082AEDD1024B0020A3F8400870BD00BF69
:10EB80002C440020764C002060310020964C002060
:10EB9000F85500209A4C0020A83E00200456002082
:10EBA000BC3E0020114B4FF0500C0CFB0030104BC2
:10EBB000B0F938004FF00A0C10B50CFB003C2024D3
:10EBC000002305E021280CBFCC54C8540133DBB22C
:10EBD0001CF8010B0028F5D14FF02C0C01F803C0F4
:10EBE000C91801334870137010BD00BF6031002098
:10EBF000644D0020F0B58FB005AC05460C222046D0
:10EC00009A4905F01DF92846994D2146FFF756FC13
:10EC10002146284608AA0AABF5F736FB0446002829
:10EC200040F01F810DF1370792490722284605F071
:10EC300007F93A462046E91DFFF7B4FF9DF8376013
:10EC40008D49F31DE81807220E36019305F0F8F8F8
:10EC5000A9193A460120FFF7A5FF9DF83770019BDF
:10EC60000737FF18E8190F22844905F0E9F8844AAC
:10EC70000F3702922E46834BB3F93810029B53F89C
:10EC8000042F0293804B02F0FF0033F8113043430E
:10EC90007E4803F50073415601EB93239BB219B2F2
:10ECA000002903DDFF2902DDFF2300E000238DF8AA
:10ECB0003030744B02F47F40B3F98810744B33F852
:10ECC0001130434373481B0A415603F5007301EBAF
:10ECD00093239BB219B2002903DDFF2902DDFF2334
:10ECE00000E000238DF83130664B12F4803F0EBFF8
:10ECF000B3F8EC3093F8EC3014338DF83230614BCC
:10ED000012F4003F0EBFB3F83C3193F83C3114339A
:10ED10008DF833300CAB5D1E0333039315F8011FE0
:10ED20000BA800F030FC00231FE00EAAD31813F844
:10ED30000C3C03B3F355013740F2FF139F4211D946
:10ED40004B4808A9F5F7A6FA0746002840F08B8043
:10ED5000C4F34103FE200134394640F20A52E4B2C2
:10ED6000FEF714FB9DF8373001338DF837309DF8EE
:10ED70003730022BD9D92C23F35540F2FF1201373B
:10ED8000974210D93A4808A9F5F784FA07460028AF
:10ED900069D1C4F34103FE200134394640F20A52DE
:10EDA000E4B2FEF7F3FA039B9D42B7D10D23F3556E
:10EDB00040F2FF1201379742254610D92C4808A986
:10EDC000F5F768FA074600284DD10134C5F3410331
:10EDD000FE20394640F20A52E4B2FEF7D7FA0A237F
:10EDE000F3550137B7F5007F10D1214808A9F5F791
:10EDF00051FA0746002836D1C4F34103FE200134FE
:10EE0000394640F20A52E4B2FEF7C0FA029B224AA7
:10EE100093427FF430AFCFB1154E0D23F3550A2343
:10EE20000137F3550137C7F500720021F01905F0DD
:10EE300045F808A93046F5F72DFA014698B9C4F30C
:10EE40004103FE2040F20A52FEF7A0FA6102084890
:10EE500008AA0AABF5F720FA002814BF0920002001
:10EE600002E00A2000E009200FB0F0BD3750010891
:10EE70002C440020165001081E500108265001089D
:10EE80004856002060310020A83E0020F8550020A0
:10EE9000BC3E00200456002048960020F0B587B004
:10EEA000F5F7CCF90146684600F011FC57238DF8C0
:10EEB000083050238DF80930514C04338DF80A3056
:10EEC00003AD00238DF80B30204669462A4605AB7A
:10EED000F5F7DCF90646002840F08F8020462946E9
:10EEE000F5F7D6F9002840F08380218801F0FF0370
:10EEF000062B7FD14348621E334612F801CF63448C
:10EF00008242DBB2F9D1002B76D13F4B090A19704E
:10EF10003E483F4B3A4A32F8021F1970090A5970AD
:10EF200002338242F7D13B4A3B49354B188A108263
:10EF30005D8A9584B3F814C0A2F838C0D88A083323
:10EF4000A2F84C0050328B42F0D1344ADFF8D0C0E6
:10EF5000002332F8020F03EB0C010C334871000A56
:10EF60006C2B0871F5D100212E4B2F482F4F0A46EC
:10EF7000B4F88AC002F800C04FEA1C2C02F807C09F
:10EF8000B4F88C50DFF8A8C02CF80150B4F88E50BB
:10EF9000DFF8A0C02CF80150B4F89050DFF898C00A
:10EFA000083402F80C50DFF894C02D0A02F80C5017
:10EFB000013202310A2ADBD1B3F85000204A108016
:10EFC000B3F852109180B3F854101E4A1170B3F880
:10EFD00056101D4A1170B3F858101C4A1170B3F83E
:10EFE0005A101B4A1170B3F85C201A4B1A7004E0D7
:10EFF000082602E0052600E00626304607B0F0BDF0
:10F000002C4400202B460020404D00203A44002094
:10F01000544D00206031002094440020A244002080
:10F02000F4300020B6440020F8550020045600209B
:10F03000A83E0020BC3E00204C5500205855002022
:10F040008C3000203A4D0020304D0020374D0020FC
:10F05000D63E0020D73E0020F0B589B0F5F7EEF897
:10F0600001AD0146284600F032FB57238DF80C30E5
:10F0700050238DF80D3004AC043306AE8DF80E30FD
:10F080007448294622463346F5F700F918B104289A
:10F0900040F0DC802DE04223BDF810008DF80C30EC
:10F0A000013B8DF80D300A33ADF81C008DF80E30A1
:10F0B0006848294622463346F5F7E6F8002840F02E
:10F0C000C380644807A9F5F7E3F8002840F0BA8048
:10F0D00060482146F5F7DEF8002840F0B7805D482B
:10F0E0004FF4007122463346F5F7D6F8002840F079
:10F0F000AD8057238DF80C30564C50238DF80D30D1
:10F1000004338DF80E3001A9204604AA06ABF5F7AA
:10F11000BBF80146002840F097804FF4007220466B
:10F1200004F0CCFE4C4B1B781B02063323804B4B68
:10F1300003F10E02187813F8011C023301EB0021D1
:10F14000934224F8021FF5D1454B424A03F58261F0
:10F150001E8A1682988C50821E8F9682B3F84C00BD
:10F160005033D08208328B42F2D13E4A3E480023CF
:10F17000191891F804C049790C3301EB0C216C2B60
:10F1800022F8021BF4D10020384B3249384D394C5B
:10F19000DFF8E4E0DFF8E4C002465757165706EB05
:10F1A0000726A1F88A603EF80060A1F88C603CF860
:10F1B00000600230A1F88E60314E9757314E96575D
:10F1C000013206EB0726A1F8906008310A2AE4D143
:10F1D0002D4A2E491088A3F850009288A3F8522097
:10F1E0002B4A1278A3F854202A4A1278A3F8562002
:10F1F000294A1278A3F85820284A1278A3F85A20EE
:10F20000274A1278A3F85C20264A002312F8010F3F
:10F210001B188A42DBB2F9D10E4C5B4204AD84F874
:10F22000FF3120462946F5F735F878B920464FF4E6
:10F2300000712A4606ABF5F72FF8002814BF092005
:10F24000002004E0082002E00A2000E0092009B0C4
:10F25000F0BD00BF2C440020404D0020554D002043
:10F2600060310020A4440020F4300020B644002087
:10F2700004560020F8550020A83E0020BC3E002087
:10F28000585500204C5500208C3000202A46002084
:10F290003A4D0020304D0020374D0020D63E002052
:10F2A000D73E00202B440020034609B905E058430F
:10F2B0000139C9B20029FAD100E001207047034B9F
:10F2C00018801A8892B2002AFBD17047184D00208E
:10F2D000F0B589B00C469DF83810B4F1004F1D46CA
:10F2E00006928DF81F10CBB213D10346202103F8EC
:10F2F000011B2E2242705A1C10462B4601E000F8DA
:10F30000011B013BDBB2002BF9D1013DEDB253559E
:10F31000CAE04FF0000CB3B9002CC4BF4FF02B0C67
:10F3200000F801CB0FDC00F1010206D04FF02D0CEC
:10F3300080F800C06442104605E03021017010469C
:10F340002E220270A446A646052100220A2605E0C8
:10F350000132AA42C8BF71439EFBF6FEBEF1090FFF
:10F36000F6DCAA42A8BF6418224600264FF00A0E17
:10F3700002E092FBFEF20E46092A06F10101F8DCDA
:10F38000032D0AD9032291FBF2FE96FBF2F602FB53
:10F390001E12002A08BF032204E0032291FBF2F6AA
:10F3A00002FB1612294647190A2005920393CDF84D
:10F3B00010C0FFF779FF0A21059ADDF810C0039B02
:10F3C00001E094FBF1F48442FBD2002008E00193B9
:10F3D000069B13F8011B06930029F9D1019B01300C
:10F3E000B042F4DB0698019306970178069B03F878
:10F3F000011F069310F8011B0029F6D118E094FBB9
:10F40000F0F100FB1144303407F801490C46991E15
:10F4100018BF0121013D002ED4BF002101F00101E0
:10F42000EDB239B1AA4205D12E2107F8011901E048
:10F43000019B0A20002DE2D19A1E18BF0122002B49
:10F440000CBF002202F0010222B11EB92E227A70F6
:10F4500002323A70022B14BF00220122002E14BF88
:10F46000002602F001060EB120231CE0E3B97B78F0
:10F470007A1C2E2B18D13978302915D09DF81F1001
:10F48000F9717979B97139797971F9783971B9780E
:10F49000BB700233BCF12D0FF970137008BF87F8F1
:10F4A00000C001D02B233B7009B0F0BD30B587B050
:10F4B000054611220C4601A8164904F0C1FCA5F12D
:10F4C0006103DBB2192B01D8203DEDB2A4F1610339
:10F4D000DBB2192B01D8203CE4B201AB5A1E03F178
:10F4E0000F010023184612F801CFAC4501D11818BE
:10F4F000C0B210338A42DBB2F5D1002301A9C95C46
:10F50000DAB2A14201D11018C0B20133102BF5D1EB
:10F5100007B030BD5853010842F21072B1FBF2FC43
:10F5200010B503460CF1300403F8014B02FB1C1428
:10F530004FF47A71A4B2B4FBF1F202F1300C80F80E
:10F5400001C001FB1240A1F5617180B2B0FBF1F284
:10F5500001FB12000A2180B202F13004B0FBF1F28B
:10F560005C7002F1300401FB120203F1010C0CF19A
:10F57000010330328CF8014003F1010C5A70002372
:10F580008CF8013010BD4FF0640CB1FBFCF20CFBA9
:10F59000121C0A215FFA8CFC10B5034602F13004FC
:10F5A000BCFBF1F203F8014B02F1300401FB12C283
:10F5B00030324470581C5A700023437010BD00292B
:10F5C00010B500F1010202DB2B23037003E02D23B1
:10F5D0004942037049B24FF0640C91FBFCF00CFB04
:10F5E0001011134600F1300449B22E204FF00A0CDE
:10F5F00003F8014B507091FBFCF00CFB10115A1CEE
:10F6000000F1300430315C70531C517000225A708C
:10F6100010BD6423B1FBF3FC03FB1C1C0A215FFA41
:10F620008CFCBCFBF1F210B502F1300401FB12C2FC
:10F630000346303203F8014B427000225A7010BD6D
:10F640009F294FEA111200F1010301D9373200E07E
:10F65000303201F00F010929027003F1010201D9D2
:10F66000373100E030311970002313707047B1F565
:10F67000204F4FEA113200F1010301D3373200E08D
:10F68000303202700A05120DB2F5206F4FEA1221D6
:10F6900003F1010001D3373100E03031D2B29F2AAB
:10F6A00019704FEA121100F1010301D9373100E05E
:10F6B000303102F00F02092A017003F1010101D972
:10F6C000373200E030321A7000230B707047B1F10E
:10F6D000204F4FEA117300F1010C01D3373300E0E2
:10F6E0003033037021F07043B3F1206F4FEA1361A0
:10F6F0000CF1010201D3373100E0303123F07F43B8
:10F70000B3F5200F8CF800104FEA135002F10101FD
:10F7100001D3373000E0303023F07F4323F470030F
:10F72000B3F5202F10704FEA134001F1010201D30D
:10F73000373000E030301B040870180CB0F5204F53
:10F740004FEA137102F1010301D3373100E0303188
:10F7500000051170020DB2F5206F4FEA107003F131
:10F76000010101D3373000E0303002F0FF029F2A60
:10F7700018704FEA121001F1010301D9373000E08F
:10F78000303002F00F02092A087003F1010101D99B
:10F79000373200E030321A7000230B7070474FF49C
:10F7A000004310211A4603FB03FC844588BF5340E5
:10F7B000520811F1FF3101D1184670471343F2E7A7
:10F7C00008B50420F4F746FD2849C243B1F800C04B
:10F7D00092B21FFA8CFC22EA0C0C1FFA8CF35BB37A
:10F7E00023491E20087013F0080018BF092013F0E9
:10F7F000400F18BF0A2013F4807F18BF032013F4B2
:10F80000007F18BF042013F4806F18BF052013F485
:10F81000006F18BF062013F4805F18BF072013F491
:10F82000005F18BF022013F4804F18BF01201CF4A2
:10F83000004F18BF08200AE00888104007D00C4984
:10F84000087818B90B4B197809B903E01846074B2B
:10F850001A8008BD12F4806018BF052012F4006FF2
:10F8600018BF062002211970F1E700BF2C4D0020BF
:10F87000284D0020294D0020034600210F488B42CF
:10F8800030B5C17716D001DA5B4201310C4A0D4D1B
:10F890004FF00A0C93FBFCF40CFB1433EB5C1046AA
:10F8A0001370013A2346002CF4D131B12D331046A8
:10F8B000137002E0302300F81E3F30BDF04C0020F2
:10F8C0000E4D002044500108F0B58FB00C46089151
:10F8D00000210490551E84460B4627461FE0104623
:10F8E0000E464010C118A942FBDC3146461E06EA0E
:10F8F00003031B188B420FDD049EBCF8020036F890
:10F900001360ACF80260049E26F81300608837F894
:10F910001360668027F813000CF1020C02340131E9
:10F92000A942DCDD08270697012188E00898049B9E
:10F930004FEA410C8C006FF0010501900293CDF865
:10F9400000C00020059405FB0CF30B926DE0069EB1
:10F950003D4F00FA06FC07EB4C02DDF800C0019FAA
:10F96000958AB2F914618444029ACDF81CC04FEA1A
:10F97000410C02EB0C046D42BC443A46029F7610E7
:10F9800045F34E05039709960A950C900D9134E0C6
:10F99000E75E09983CF9031007FB00F50A9E01FB9E
:10F9A00006F0C5F3803606EBE536B6B2A6EBE036D8
:10F9B000C0F38030361A09980A9D41436F43C1F362
:10F9C000803000EBE13189B201EBE731C7F38037DA
:10F9D000CF190399D55AC85EB6B2C0F34F00811B48
:10F9E000E15245F34E01BFB289B2CD1B2CF8035052
:10F9F000039D30187918E852D1520598079E039953
:10FA0000009F0918F6190B9D0391F118241812187C
:10FA1000A94207968444BBDB029E019F0C980236E4
:10FA200002370D9901300296019788428FDBDDF88D
:10FA300018C00B9A0CF1FF3C0099CDF818C0914208
:10FA4000FFF674AF0FB0F0BD445001087047FEE7F9
:10FA5000FEE7FEE7FEE77047704770477047704764
:10FA600070477047704770477047704770477047DE
:10FA700070477047704770477047704770477047CE
:10FA80007047704708B5F4F7BBFB08BD08B5F4F73D
:10FA9000B9FB08BD704770477047704770477047A3
:10FAA0007047704710B513200021F4F7CFFB3D4B92
:10FAB0001A7822B11A78013AD2B21A7071E014227F
:10FAC0001A705A6812B15A68013A5A60354B1A894D
:10FAD00092B2142A03D91A89143A92B200E0002291
:10FAE0001A81304B5A8992B2132A04D95A89143A8E
:10FAF00092B25A8103E003200021F4F7A7FB294CBE
:10FB0000237B312B04D8237B0133DBB2237310E03A
:10FB10000023042001212373F4F798FBE3890133C8
:10FB20009BB2E381238A9BB21BB1238A013B9BB228
:10FB300023821C4B9A7C0132D2B29A749A7C0E2A90
:10FB400009D900229A74DA7CD2F1010238BF00226E
:10FB5000DA7401221A75134BDA8A92B21AB1DA8A70
:10FB6000013A92B2DA820F4B1A7E1AB11A7E013A2A
:10FB7000D2B21A760B4B5A7E1AB15A7E013AD2B2E1
:10FB80005A76FFF71DFE60B1064C074BA076B3F91D
:10FB9000E4130523013959430320F4F757FB3C23B1
:10FBA000638110BD104D0020603100207047704708
:10FBB000704770477047704770477047704770478D
:10FBC000704770477047704770477047704770477D
:10FBD000704770477047704770477047704770476D
:10FBE0007047704770477047184B1B78A3F10D02A0
:10FBF000D2B20B2B14BF00210121082A8CBF0A4668
:10FC000041F001020AB90C2B0FD1114AD15C5022EC
:10FC10005A43142303FB01230E4A9B189A7842F09F
:10FC200002029A70094B00221A700B4B00221A70C4
:10FC30000A4B40F293111980044B1B78082B04D116
:10FC4000034B197A022908BF1A727047404D0020F1
:10FC5000544D002070310020304D0020D03E002057
:10FC6000344B10B5B3F82823B3F9301310B263380E
:10FC7000884202DC643AA3F830232E4BB3F83C23CD
:10FC8000B3F9441310B26338884202DC643AA3F833
:10FC90004423FEF769FA284A01231370274A40F2E9
:10FCA00037111180264A1370264B03F16C02D97A62
:10FCB00041F00201D9720C339342F8D11D4B00245C
:10FCC00093F8BA2242F0020283F8BA2293F85A2338
:10FCD00042F0020283F85A2393F8CE2242F0020245
:10FCE00083F8CE2293F86E2342F0020283F86E234B
:10FCF00093F8822342F0020283F8822393F8D223FE
:10FD000042F0020283F8D22393F8962342F00202D3
:10FD100083F8962393F8E62342F0020283F8E62361
:10FD200001F022FA20460134E4B201F07BFA092CFA
:10FD3000F8D110BD60310020304D0020D03E0020B1
:10FD40005C3A0020F4300020F0B54FF000608BB03A
:10FD5000DFF8381B03F0ECFAF4F788FA0B20F4F71D
:10FD600079FA034648B9DFF8282B302000921E218B
:10FD700040F2FF72F4F768FAFEE7DFF8183B322131
:10FD80004FF6FF72009320200023F4F75DFA07205E
:10FD9000F4F760FADFF8003B18600820F4F75AFA2D
:10FDA000DFF8F83A18600920F4F754FADFF8F03A6F
:10FDB00018600A20F4F74EFADFF8E83A186002F00B
:10FDC00097F8FFF76BF8054640B9DFF8DC3A3020CA
:10FDD00000931E214FF4FC622B4607E0DFF8CC3A7B
:10FDE000302000931E2140F2FF720023F4F72CFA1A
:10FDF000DFF8BC3A4FF4FA701880FCF799F902F07A
:10FE000075F9DFF8B03A00221A70DFF8AC3ADFF883
:10FE1000AC4A1B78012BDFF8A83A1CBF40F28D12C8
:10FE20001A80DFF8A02A04BF40F237111980DFF8EA
:10FE3000883AB2F8F01100275970B2F84C00B2F8C5
:10FE40009C2058809A80DFF8802A069712883E46C8
:10FE50000792DA7908979A710597DFF8682ADFF830
:10FE6000583AB2F9F0115878814200F0978004298D
:10FE70002BD10492039302F0FBF8039B049A597868
:10FE800003299FBFB2F84C10B2F89C2059809A8089
:10FE9000DFF8302A6423A2F84C30A2F89C30DFF857
:10FEA0002C2A87211170DFF8282A1370DFF8082A1E
:10FEB000137813720BB9FFF7D3FEDFF80C3A1B88E7
:10FEC0000793DFF8F439DA799A71DFF8F839B3F982
:10FED000F021052A2DD1039302F0CAF8DFF8D829C2
:10FEE000039B517803290AD8B3F84C00B3F89C302F
:10FEF00050809380137813720BB9FFF7B1FEDFF8CF
:10FF0000B8395A78042A01BFDFF8BC290799118053
:10FF10009A7908BFDA71DFF8AC296423A2F84C3073
:10FF2000A2F89C30DFF8A42987211170DFF8A029FE
:10FF30001370DFF89029B2F9F031032BCCBF002108
:10FF40000121062B14BF0B4641F0010333B3DFF848
:10FF500068395978032994BF0020012006290CBF75
:10FF6000002100F00101C9B158889988A2F84C001D
:10FF7000A2F89C10039302F07BF8039B1B7A0BB949
:10FF8000FFF732FEDFF830395A78042A01BFDFF874
:10FF90003829079810809A7908BFDA71DFF8242988
:10FFA000DFF81419B2F8F031181F80B201284B7035
:10FFB0000DD87220A2F84C006420042BA2F89C00FB
:10FFC00005D10023CB71DFF80039C8211980DFF893
:10FFD000F438B3F800310A3B9BB2012BDFF8D83874
:10FFE00001D8012200E000225A72DFF8E8381988AF
:10FFF00089B239B90220F4F729F914200121F4F764
:020000040801F1
:1000000025F9EFE002F09CFFDFF8CC381B889BB2AB
:10001000CBB1DFF8B03893F85A2342F0020283F8EC
:100020005A2393F8BA2242F0020283F8BA2293F8D4
:10003000CE2242F0020283F8CE2293F86E2342F0E1
:10004000020283F86E23059A0898531C9BB205930D
:10005000DFF888381A8892B2904219D01B88059927
:100060009BB20893DFF87838198001F08FFFDFF832
:1000700048381B78012B09D10025E8B2013501F081
:10008000D1F8092DF9D10022059201E00023059352
:10009000DFF824381B78012B01D101F065F801F05D
:1000A0003FFCDFF840381B78002B00F09780DFF82A
:1000B0000838DB7973B9DFF80C28DFF82C18B2F8B0
:1000C000402240F26D1002F5A062009192B2D82158
:1000D000FDF79EF9DFF8E037DB79012B0ED1DFF871
:1000E000E427DFF80818B2F8402240F26D1002F55C
:1000F000A062009192B2D821FDF78AF9DFF8B837F3
:10010000DB79022B0FD1DFF8BC3740F26D10B3F86A
:100110004022DFF8DC3702F5A062009392B2D821CA
:100120000123FDF775F9DFF89037DB79032B0FD149
:10013000DFF8903740F26D10B3F84022DFF8B437A3
:1001400002F5A062009392B2D8210123FDF760F975
:1001500002F04EF802F09AF802F0CAF8DFF86437BD
:10016000B3F9F031042B01D002F092F9DFF85437E3
:10017000B3F8F031043B9BB2022B01D9FDF7D6FD59
:10018000DFF840370220B3F994130A2301315943B1
:10019000F4F75CF8DFF860371B78092B01D0FDF726
:1001A00011FFDFF814371B78012B13D1DFF8143758
:1001B00093F8BA2242F0020283F8BA2293F8CE22D0
:1001C00042F0020283F8CE2293F86E2342F002023C
:1001D00083F86E23DFF80C3700221A70DFF81C3723
:1001E00000221A70DFF8DC36B3F95031012B12D13E
:1001F0000320F4F72FF818B90230F4F72BF850B9B0
:10020000DFF8C036022093F85221A3F8500142F0E3
:10021000020283F85221DFF8A036DB79002B5AD096
:10022000DFF8D4361B78072B0ED1DFF8D436DA7915
:10023000022A09D1DFF88C2692F86A1241F00201F5
:1002400082F86A120022DA71DFF87836B3F84032A9
:1002500003BBDFF86426DFF8AC36D079DFF8A826D8
:100260001B7811784000C91A4143082291FBF2F231
:1002700006999B189BB24A1D934202DC4A1F934287
:1002800029DADFF8442601211380DFF85826069387
:10029000117020E0012B1ED1DFF81C26DFF86C3630
:1002A000D079DFF86C261B7811784000C91A4143D9
:1002B000082291FBF2F29B189BB27A1D934202DC5A
:1002C0007A1F934207DADFF8002601219380DFF8D6
:1002D00014261F461170DFF8E035997A012914D1F0
:1002E000DFF8E0350022B3F9F001A3F81822032863
:1002F00004BFDFF8203619700BD0B3F904320A2B93
:10030000DFF8103604DC022202E0DFF808360022B3
:100310001A70DFF8A0351B78002B3FF49EADDFF894
:10032000B4351B889BB20BB901F0E0FEDFF8A435B1
:100330004FF416721A80DFF87C351B78012B43D1FD
:10034000DFF8D4354FF42F70188039E00420039380
:10035000F3F780FF10F4804F039B30D0DFF8643553
:10036000B3F95021D2F1010238BF0022A3F8502185
:1003700093F8522142F0020283F85221DFF87825E7
:100380001278092A05D1B3F90833022B01D1FEF7FF
:10039000A3FBDFF83035B3F9F031022B14D1DFF8CD
:1003A0007C350022DFF8781503F8012F8B42F9D154
:1003B00006200121F3F74AFF4FF4C46504E01A88D0
:1003C0001A8892B2002AC1D1DFF8E8341B78022BD8
:1003D00045D1DFF8443540F6B8321A802FE00420CA
:1003E0000393F3F737FF10F4005F039B27D0DFF888
:1003F000C834DA790132D2B2032ADA7101D9002283
:10040000DA71DFF8F424DFF8F83411784FF0500C8B
:10041000585C0CFB01F14FF0140C0CFB0011DFF8E1
:1004200004E57144887840F002008870DFF8881491
:10043000C97941B9073111700222DA7103E01A88D3
:1004400092B2002ACBD1DFF8D0341B889BB233B9EB
:10045000DFF8A4341878012801D8FBF7D9FEDFF8BB
:1004600054341B78032B53D1DFF8AC3440F2DC500A
:100470001880099545E00420F3F7ECFE10F4807F26
:1004800013D0DFF83434099D1B78012B0AD1DFF833
:100490003434B3F8F031043B9BB2012B38D9FFF769
:1004A000A3FB35E0FFF7DCFB32E0DFF86C140B88D0
:1004B0009BB233BBFEF7D0FDDFF83C341B78092B31
:1004C0001FD00425DFF8602400210B4600925B203A
:1004D00040F20542FCF79CFF4FF49670FEF7EFFEEA
:1004E000DFF84834002100935B2040F205420B46C0
:1004F000013DFCF78DFFEDB2C820FEF7E0FE002DB8
:10050000E0D1DFF8140403889BB2002BB3D1099D1E
:10051000E84B1B78042B40F06181F74B1B78092BCB
:1005200000F0BF80FC4B4FF42F711980A2E0042033
:100530000393F3F78FFE10F4007F039B00F09A8083
:10054000DD4B1B78012B40F09A80032E18D8DD4A32
:100550000136B2F8F031F6B2043B9BB2012B8CBFEE
:1005600000230123012E94BF002103F0010111BBE0
:10057000042E20D0012E08BFA2F8B86205D000E0FA
:100580000026D04B0022A3F8B822E37A012243F0E0
:100590000203E3720023637104332371C74BD97DD7
:1005A0000132D2B241F00201D9755A741E740C3373
:1005B000092AF4D163E0E27A42F00202E2720022F8
:1005C000627104322271BD4AD17DD94841F00201E5
:1005D000D1750C328242F7D133B9BA4BB3F9B0209E
:1005E0002ABBB3F9003113BB0023042603200221E8
:1005F00007222374237784F8283084F834300133B9
:100600006674607784F8291084F8352084F8416096
:1006100084F8403084F84D0084F84C3084F8591048
:1006200084F8583084F8652084F8643027E000228C
:1006300022742277013284F8282084F83420013291
:100640000426072384F8402084F84C200132667485
:10065000637784F8296084F8353084F8416084F841
:100660004D3084F8596084F8582084F8653084F857
:10067000642004E01A8892B2002A7FF458AFA64B97
:10068000198889B269B98C4A8E4B907A28B90131A0
:100690009172B3F81832938103E091729289A3F8B2
:1006A0001822DFF854C29CF80030092B40F09680E5
:1006B000A04B00210093E6200B4640F20A52CDF8F1
:1006C00010C0FCF7A5FEDDF810C07E4B9CF80020A2
:1006D000502101FB0231B1F91000002836D1B1F9E7
:1006E0003810032928D8DFE801F0020A171F50212B
:1006F00001FB023393F82400FDF7F4FF1BE05021C7
:1007000001FB023393F82400FDF78CFF05464FF4FC
:100710007A70FEF7D4FD0FE0502101FB023393F80D
:100720002400FEF779F806E0502101FB023393F82C
:100730002400FEF75FFA05466F4B50211A78614B93
:1007400001FB02339A8C01329A8419E0B1F93830F6
:10075000012B05D191F82400FDF730FF054600E09C
:100760000025654B50211A78564B01FB0233B3F933
:100770003820022A04D193F82400FEF7DBF805465E
:100780003DB96D4BE6200093294640F20A522B46B4
:100790000DE0042D08BF694B03D0032D0CBF684B3F
:1007A000684B00210093E62040F20A520B46FCF70A
:1007B0002FFE4FF47A70FEF782FD4F4B414A1B78B3
:1007C000502101FB032303F124029178383341F0D7
:1007D000020191709A7842F002029A70354B1B78B0
:1007E000052B40F06181374BB3F8F031043B9BB2ED
:1007F000012B16D8404B1B783BB9414B1B78032B80
:100800000FD1324B1A782D2A08E0012B09D13C4B2D
:100810005B78032B05D12E4B1A781E2A01D9023A98
:100820001A70354B1A780A2A04D0082A05D1224BAF
:100830001B78CBB9284B962119800C2A00F2148121
:10084000072A11D12E4BDB79022B0DD11D4BB3F9A9
:1008500040221D4B33F8221008B2112840F3A98022
:10086000013923F82210A4E0A2F10B03DBB2012B23
:100870006AD8144B502101FB0232938C19B2002923
:1008800040F39780013B938493E000BF00C00008D1
:10089000695301088F5301089C9E00206455002075
:1008A000A09E0020A49E0020B8530108DF53010839
:1008B0001A4D00202A4D0020304D0020F430002039
:1008C000D03E0020603100208C300020D63E002039
:1008D000D73E0020204D0020264D00201E4D002038
:1008E000504D00205C3A0020065401080C540108C9
:1008F0001254010818540108404D0020244D0020D6
:10090000544D00203A560020385600203B56002017
:10091000395600201C560020184D00202B4F002077
:100920004B550020703100201E5401087C41010805
:10093000543100203A54010840540108465401083B
:100940004C54010852540108062A1BD1DFF8E43741
:100950009B79022B16D1DFF8E037B3F8182211B2D9
:100960001E2901DD1E3A02E0002902DD013AA3F84A
:100970001822DFF8C43793F82E2242F0020283F8DF
:100980002E2216E0DFF8AC3750219B5C4A4314213D
:1009900001FB0322DFF8A0379A18138A19B2002945
:1009A00001DD013B04E0937A13F0100F01D01389AD
:1009B0001382DFF888371A78062A0FD1DFF87437E8
:1009C0009979002933D1DFF87037A3F8501193F8E3
:1009D000521141F0020183F8521128E0052A0FD18B
:1009E000DFF85437B3F9A011042920D005291ED00F
:1009F000B3F9B4110E291ADD0E20A3F8B40116E0E4
:100A0000092A14D1DFF83037B3F9E01201290ED1E9
:100A1000B3F9081311B90221A3F80813DFF8183746
:100A2000B3F90813032902D10220A3F80803DFF861
:100A30000837502101FB023303F11002917841F095
:100A40000201917003F12402917841F0020191704A
:100A500003F1380291784C3341F0020191709A7899
:100A600042F002029A701FE00D3A0C2303FB02438E
:100A700003F10801C87840F00200C870597909B143
:100A8000013900E00B2159710C2303FB0243597912
:100A9000012901D1033119710C2303FB024253795F
:100AA0000B2B01D100231371DFF894361B78072B31
:100AB00040F0CA80DFF8843650201B78DFF87426B7
:100AC0005843D15C4FF0140C0CFB0100DFF874C6E6
:100AD000022B604490F802C04CF0020C80F802C077
:100AE00002D139B9D35405E0032B03D1D17809B928
:100AF0000231D170DFF85026117839B9082B05D1B1
:100B0000DFF83026107A012802D194E00C2B7AD835
:100B100050205843DFF81C264FF0140CD15C0CFB1E
:100B20000100DFF820C60229604490F802C04CF0B2
:100B3000020C80F802C001D8013100E00021052B31
:100B4000D15416D1DFF8F025B2F9A021042A40F0E3
:100B5000EA82DFF8E0255179032940F0E4820021A0
:100B60005171E0E2DFF8CC255179022901D1013140
:100B7000517150215943DFF8BC254FF0140CD05C63
:100B8000DFF8C8E50CFB0011714491F9021000294F
:100B900001DA0021D15450215943DFF898254FF054
:100BA000140CD05CDFF8A4E50CFB001171448978CB
:100BB00011F0010F01D00021D15450215943DFF829
:100BC00074254FF0140CD05CDFF880E50CFB0011AD
:100BD0007144897811F0020F05D0092B03D0052B41
:100BE00001D00021D154DFF84C255021D25C4B4379
:100BF000142101FB0233DFF84C051B189A7842F0F0
:100C000001029A7020E00D3B0C2202FB034202F12C
:100C10000801C87840F00200C8701179032901D892
:100C2000013111710C2202FB03431A79032A0BD9FB
:100C300000221A7108E0DFF80035117293F8A6025D
:100C400040F0020083F8A602DFF8F4341B78062B8C
:100C500040F04181DFF8E034B3F8F031043B9BB25F
:100C6000012B1BD8DFF8D4341B784BB9DFF8C43420
:100C70001B78032B12D1DFF8D8341A78D62A0AE071
:100C8000012B0BD1DFF8AC345B78032B06D1DFF8F6
:100C9000C4341A78A92A01D802321A70DFF89C34B9
:100CA0001B780A2B05D0082B07D1DFF89C2412787B
:100CB0001AB9DFF8A42496211180DFF88C24D279A8
:100CC00042B1072B06D1DFF86C34DA79022A01D160
:100CD0000022DA71DFF864341A780C2A00F2DA8024
:100CE000072A13D1DFF84C34DB79022B0ED1DFF861
:100CF0004834B3F94022DFF8643433F8221008B2E4
:100D0000D02874DC013123F8221070E0A2F10B032B
:100D1000DBB2012B0DD8DFF82034502101FB023368
:100D20009A8CB3F91C0011B2884260DD01329A84BA
:100D30005DE0062A1ED1FF4B9B79022B3ED1FE4B74
:100D4000B3F8182211B21D2909DDB3F91002A0F180
:100D50001E0C614501DA1E3202E0814202DA0132E4
:100D6000A3F81822F44B93F82E2242F0020283F8E3
:100D70002E223CE00A2A21D1EE4B997A01291DD876
:100D8000F14B1B78012BEC4B09D10A3202FB0133EA
:100D9000B3F83023B3F9281310B2643908E01422F1
:100DA00002FB0133B3F83023B3F9281310B20C3926
:100DB00088421CDA0132A3F8302318E0DD4B995C3D
:100DC00050235A43142303FB0122DB4B9B181A8A3E
:100DD000B3F908C010B2844503F1080101DD013206
:100DE00004E08A7812F0100F01D000221A82D34B4F
:100DF0001B78062B0DD1CF4A917900292ED1CE4AEE
:100E0000A2F8501192F8521141F0020182F85211E9
:100E100024E0052B0ED1C84AB2F9A01104291DD037
:100E200005291BD0B2F9B4110E2917DD0E20A2F846
:100E3000B40113E0092B11D1BF4AB2F9E012012924
:100E40000CD1B2F9080308B9A2F80813BA4AB2F9EA
:100E50000813032902D10121A2F80813B64A502130
:100E600001FB032303F11002917841F0020191701C
:100E700003F12402917841F00201917003F13802EC
:100E800091784C3341F0020191709A7842F002025D
:100E90009A7020E0A2F10D030C2202FB034202F142
:100EA0000801C87840F00200C87051790A2901D8B9
:100EB000013100E0002151710C2202FB0342517903
:100EC00009B9043111710C2202FB03435A79022A39
:100ED00001D100221A719A4B1B78092B6DD1974AC8
:100EE00013780C2B4ED893494FF0140CC85C50214A
:100EF00059430CFB0011DFF84CE27144887840F054
:100F00000200887090490978012902D123B90C3375
:100F100003E00BB90A3300E0013B1370874B1A78EA
:100F2000042A01D1013A1A70844B824A1B784FF08F
:100F3000140CD05C50225A430CFB00207E49081848
:100F4000103090F802C0092B4CF0030C80F802C05E
:100F500033D18A1802F11003997841F00201997097
:100F600002F12403997841F00201997002F13803EB
:100F700099784C3241F002019970937843F0020362
:100F800093701AE00C20A3F10D0100FB0141083120
:100F9000C8780D2B40F00200C87001D1083300E082
:100FA000013B1370654B0C221B780D3B02FB034386
:100FB0000833DA7842F00102DA70614B1B780A2BB1
:100FC00035D15E4A5B4913784FF0140CC85C502150
:100FD00059430CFB0011DFF86CE17144887840F054
:100FE000020088705849097871B9A3F10D01C9B29E
:100FF0000B2B14BF00220122082998BF42F00102E6
:1010000092B90C2B13D10FE00C2B84BF544B03F17E
:101010006C0202D80D23137009E0D97A41F0020165
:10102000D9720C339342F8D1444B00221A70444BCE
:101030001B78082B6FD1414A13780C2B50D83D49AF
:101040004FF0140CC85C502159430CFB0011DFF821
:10105000F4E07144887840F0020088703A490978D9
:1010600019B90A2B08BF117006D00C2B334A01D1D5
:10107000002300E001331370304B1A78042A01D1A9
:1010800001321A702D4B2B4A1B784FF0140CD05C98
:1010900050225A430CFB002027490818103090F8C2
:1010A00002C0092B4CF0030C80F802C033D18A181F
:1010B00002F11003997841F00201997002F12403C2
:1010C000997841F00201997002F1380399784C3215
:1010D00041F002019970937843F0020393701AE093
:1010E0000C20A3F10D0100FB01410831C878152B3C
:1010F00040F00200C87001D10D2300E001331370ED
:101100000E4B0C221B780D3B02FB03430833DA78AD
:1011100042F00102DA700A4B00221A70114B0132C0
:101120001A70FEF79ABE044AB2F9A021042A7FF48D
:1011300019AD1EE5544D002060310020404D0020C7
:101140002A4D002070310020304D002068310020F1
:10115000D63E0020D73E0020264D00208C300020B7
:10116000F43000205C3A0020F0B5284C284F85B0C0
:1011700004F16C0500264FF0050C237813F0020FE4
:1011800016D014F8073C14F806EC37F8132054F87E
:101190000B3C26700CFB0E3334F8050C14F8011CC4
:1011A00000930023CDF80CC0FCF732F9DDF80CC039
:1011B0000C34AC42E1D1174B1A780D3AD2B2082A5E
:1011C00021D8154B1978F1B14FF00C0E0EFB02FE31
:1011D000124C0021197004EB0E0C9CF8045054F8CA
:1011E0000EE0BCF806009CF80A109CF805C0052427
:1011F00004FB0CEC0A4B064A1B7832F81520CDF89C
:1012000000C0FCF705F905B0F0BD00BFFF300020BD
:1012100058540108404D0020244D0020F430002097
:10122000234D0020DFF86436F0B5B3F97052DFF8D3
:10123000603614221B68082D02FB053385B0044676
:10124000DE890BD80323C5F10B01B1FBF3F1C9B261
:101250000A20FEF729F8012307460AE00323A5F137
:101260000901B1FBF3F1C9B20A20FEF71DF801270D
:1012700003460322B5FBF2F102FB1152DFF8101610
:101280001425096805FB0212D2F8C450039301F03B
:10129000EFF9DFF8F81502460C2000FB0410407946
:1012A000039B0B2800F2DE82DFE810F00C00130035
:1012B0001E005E00A80014013E018701E3010E023A
:1012C00091024A020620F2F7C5FF4FF47A714143BA
:1012D0006EE1DFF8C0050223018ADFF8BC2501F0CA
:1012E0007F0100930430BBE20C2202FB04110A7957
:1012F000DFF8983582B9B3F87C20002A00F05781D6
:10130000DFF89815B3F9A4300878DFF89415097858
:10131000411ADFF8900512E0012A40F04681B3F847
:10132000CC20002A00F04381DFF87C15B3F9F430BB
:101330000878DFF878150978411ADFF8740530F875
:1013400013004FF0140C41434FF4806001F500711D
:1013500091FBF0F1DFF85C050429D8BF002100689B
:101360000CFB03031B691AE10C2000FB0411097933
:10137000DFF81835A1B9B3F87C0000283CD0B3F9E8
:10138000A4C0DFF83415B3F9B83011F90C10CB1A3A
:10139000DFF828150968B1FBF2F2DFF8081515E04F
:1013A000012940F00281B3F8CC0028B3B3F9F4C0AE
:1013B000DFF80C15B3F9083111F90C10CB1ADFF86E
:1013C00004150968B1FBF2F2DFF8E41431F81C10DF
:1013D000514301F5007103EB91218B1C042B98BF45
:1013E0000021DFF8D03414221B6802FB0C3CDCF82F
:1013F000103059430228D4E00146D9E00C2303FB06
:1014000004110B79DFF884546BBBB5F97C1059B328
:10141000B5F9A430DFF8A014CE56DFF8881431F8FF
:101420001370DFF8A43418680392B0FBF2F0FEF7F3
:10143000B6F9DFF88014B5F9A430096847431420E1
:1014400000FB031307F50077196906EB9726B5F93A
:101450007C30042ED8BF00267143022B039A03D19F
:101460000833594300E00021DFF820540C2303FB2C
:1014700004531B79012B40F09B80B5F9CC10002957
:1014800000F09680B5F9F430DFF83414CE56DFF86A
:10149000201431F81370DFF834341868B0FBF2F020
:1014A000FEF77DF9DFF80C24B5F9F4301268142149
:1014B000474301FB032307F50077196906EB9726DD
:1014C000B5F9CC30042ED8BF00267143022B6FD162
:1014D000083368E00C2202FB04110A79EB4B82B955
:1014E000B3F87C20002A62D0B3F9A400F249B3F922
:1014F000B8300956DFF8A4C3CB1AEA4931F8101006
:101500003AE0012A51D1B3F8CC20002A4FD0B3F9E8
:10151000F400EB49B3F908310956DFF88CC3CB1A54
:10152000E34931F8101027E00C2202FB04110A797C
:10153000D64B82B9B3F87C20002A38D0B3F9A40086
:10154000DD49B3F9B8300956DFF854C3CB1AD54991
:1015500031F8101010E0012A27D1B3F8CC2032B3B3
:10156000B3F9F400D649B3F908310956DFF83CC3A2
:10157000CB1ACF4931F810109CF800C00CFB01F1D8
:1015800001F5007103EB91218B1C042B98BF002106
:10159000C84B4FF0140C1B680CFB00300369594317
:1015A000022A05D10A23594302E0002100E0114636
:1015B00000230093C648C74A51E10C2000FB0411E8
:1015C0000979B24A49B9B2F97C1000292FD0C24A30
:1015D000C24912885143C24A21E0012908D1B2F917
:1015E000CC1021B3BF4ABD4912885143BE4A16E010
:1015F000022909D1B2F91C21012A17D1BB4AB749E6
:1016000012885143BA4A0AE003290FD1B2F96C217A
:10161000012A0BD1B74AB14912885143B64A128800
:1016200091FBF2F14FF4FA62514300E00021092BE3
:101630000CD80623B5FBF3F5B1FBF5F1FA256943A8
:101640000933B1FBF7F1B1FBF3F10DE00622B5FB75
:10165000F2F5B1FBF5F14B43EA32B3FBF2F35E4333
:101660004FF47A71360A7143012300939848A34AD4
:10167000F5E00C2000FB04110979844A31B9B2F974
:101680007C10974A002940F0AD80FDE0012906D189
:10169000B2F9CC10944A002940F0AF80F4E002295E
:1016A00007D1B2F91C21012A08BF914A40F0C2803B
:1016B000AEE0032940F0BE80B2F96C21012A08BFD8
:1016C0008D4A40F0B780AEE00C2202FB04110A798B
:1016D0006E4B4AB9B3F97C1000292CD0884B89494C
:1016E0001B8859437E4B21E0012A08D1B3F9CC1065
:1016F00009B3854B83491B8859437B4B16E0022A6B
:1017000009D1B3F91C31012B14D1804B7D491B88C1
:101710005943774B0AE0032A0CD1B3F96C31012B02
:1017200008D17B4B77491B885943734B1B8891FB2E
:10173000F3F100E00021012300936548754A8EE033
:101740000C2000FB04110979504A69B9B2F97C10E8
:10175000002900F0998062495F4A0988128869432C
:101760006748B1FBF2F12CE001290DD1B2F9CC10A0
:10177000002900F089805C495A4A09881288694327
:101780006148B1FBF2F11CE002290CD1B2F91C2135
:10179000012A4FD15649554A0988128869435B4846
:1017A000B1FBF2F10DE0032944D1B2F96C21012A19
:1017B00040D151494F4A0988128869435448B1FBC6
:1017C000F2F100884543B5FBF2F28D1A33E00C20AC
:1017D00000FB041109792D4A41B9B2F97C100029A6
:1017E00052D0474A128855433B4A1FE0012908D18D
:1017F000B2F9CC10002947D0434A12885543394AE0
:1018000014E0022908D1B2F91C21012A12D13F4A61
:1018100012885543354A09E003290BD1B2F96C21EE
:10182000012A07D13A4A12885543324A1288B5FB39
:10183000F2F500E000256FF00042B2FBF7F29542AE
:1018400088BF4FF0004106D807FB05F1B1FBF6F168
:101850008902B1FBF3F101231D482F4A00930333A2
:10186000FDF736FD094B0C2202FB04342B4B227989
:10187000208903EB42039A89154BA17A0093002338
:10188000FBF7C6FD05B0F0BD0D46D4E7F4300020EF
:1018900064550020404D00207C3500203856002043
:1018A0003A560020A83E0020395600203B56002022
:1018B000BC3E00209C9E0020F85500203C56002095
:1018C0000456002040560020445600204856002070
:1018D000444D00207035002026560020404B4C001F
:1018E000509A002028560020549A00202A560020A2
:1018F000589A00202C5600205A9A00208835002043
:101900001E560020A08601002056002022560020EE
:1019100024560020A035002094350020585401089A
:10192000F0B5DFF890358BB01A78052A08D15B7EC8
:10193000023BDBB2012B9CBFDFF87C351D7800D960
:101940000125DFF87845B4F90C32042B1BD194F84B
:101950003412D4F82402FDF716FED4F828329C2065
:101960001A88DFF85C35D82100932B46FBF750FD31
:10197000D4F82832B4F830021A88D4F8243294F813
:101980003212009321E0D4F828329C201A88DFF824
:101990003435D82100932B46FBF73AFDB4F9483291
:1019A000DFF8246546F290515943012300933046F5
:1019B000DFF81825DB18FDF78BFCD4F83C32B4F8BF
:1019C000440294F846121A8800962B46FBF720FD35
:1019D0000020DFF8FC6408905DE2BB7C13F002029B
:1019E00000F0838123F00203BB74042D14BF002395
:1019F0000123072D08BF43F0010314F8082CE3B1BD
:101A000012F0200103910CD054F80E3CB6F91020CE
:101A100034F8060C33F8122014F8041C54F8123C65
:101A200002E112F0800F02BF34F8060C14F8041C17
:101A3000B6F910C000F0C0811EE212F0200C40F098
:101A40004A8112F0020300F0C280082D3DD1DFF878
:101A50006C345020B3F92423DFF878E400FB023023
:101A6000B0F97C20022AB3F9FC22B3F910330CD16F
:101A7000B0F9A400DEF800104FF0140E0EFB0011B8
:101A800009690A204143D31A08E0B0F9A410D31A17
:101A9000DEF80020142000FB012211695943DFF811
:101AA0002804DFF828240323CDF800C0FDF710FC3C
:101AB000DFF8083434F8060CB3F9242354F80E3C4C
:101AC00014F8041C33F81220ADE00A2D63D1FB4B4F
